{
  "_format": "hh-sol-artifact-1",
  "contractName": "AmdXvmNFTMarketplace",
  "sourceName": "contracts/AmdXvmNFTMarketplace.sol",
  "abi": [
    {
      "inputs": [],
      "name": "CannotBuyOwnNFT",
      "type": "error"
    },
    {
      "inputs": [
        {
          "internalType": "address",
          "name": "sender",
          "type": "address"
        },
        {
          "internalType": "uint256",
          "name": "tokenId",
          "type": "uint256"
        },
        {
          "internalType": "address",
          "name": "owner",
          "type": "address"
        }
      ],
      "name": "ERC721IncorrectOwner",
      "type": "error"
    },
    {
      "inputs": [
        {
          "internalType": "address",
          "name": "operator",
          "type": "address"
        },
        {
          "internalType": "uint256",
          "name": "tokenId",
          "type": "uint256"
        }
      ],
      "name": "ERC721InsufficientApproval",
      "type": "error"
    },
    {
      "inputs": [
        {
          "internalType": "address",
          "name": "approver",
          "type": "address"
        }
      ],
      "name": "ERC721InvalidApprover",
      "type": "error"
    },
    {
      "inputs": [
        {
          "internalType": "address",
          "name": "operator",
          "type": "address"
        }
      ],
      "name": "ERC721InvalidOperator",
      "type": "error"
    },
    {
      "inputs": [
        {
          "internalType": "address",
          "name": "owner",
          "type": "address"
        }
      ],
      "name": "ERC721InvalidOwner",
      "type": "error"
    },
    {
      "inputs": [
        {
          "internalType": "address",
          "name": "receiver",
          "type": "address"
        }
      ],
      "name": "ERC721InvalidReceiver",
      "type": "error"
    },
    {
      "inputs": [
        {
          "internalType": "address",
          "name": "sender",
          "type": "address"
        }
      ],
      "name": "ERC721InvalidSender",
      "type": "error"
    },
    {
      "inputs": [
        {
          "internalType": "uint256",
          "name": "tokenId",
          "type": "uint256"
        }
      ],
      "name": "ERC721NonexistentToken",
      "type": "error"
    },
    {
      "inputs": [],
      "name": "EnforcedPause",
      "type": "error"
    },
    {
      "inputs": [],
      "name": "ExpectedPause",
      "type": "error"
    },
    {
      "inputs": [],
      "name": "InsufficientFunds",
      "type": "error"
    },
    {
      "inputs": [],
      "name": "NFTNotForSale",
      "type": "error"
    },
    {
      "inputs": [],
      "name": "NotOwner",
      "type": "error"
    },
    {
      "inputs": [
        {
          "internalType": "address",
          "name": "owner",
          "type": "address"
        }
      ],
      "name": "OwnableInvalidOwner",
      "type": "error"
    },
    {
      "inputs": [
        {
          "internalType": "address",
          "name": "account",
          "type": "address"
        }
      ],
      "name": "OwnableUnauthorizedAccount",
      "type": "error"
    },
    {
      "inputs": [],
      "name": "PriceGreaterThanZero",
      "type": "error"
    },
    {
      "inputs": [],
      "name": "ReentrancyGuardReentrantCall",
      "type": "error"
    },
    {
      "inputs": [],
      "name": "TransferFailed",
      "type": "error"
    },
    {
      "anonymous": false,
      "inputs": [
        {
          "indexed": true,
          "internalType": "address",
          "name": "owner",
          "type": "address"
        },
        {
          "indexed": true,
          "internalType": "address",
          "name": "approved",
          "type": "address"
        },
        {
          "indexed": true,
          "internalType": "uint256",
          "name": "tokenId",
          "type": "uint256"
        }
      ],
      "name": "Approval",
      "type": "event"
    },
    {
      "anonymous": false,
      "inputs": [
        {
          "indexed": true,
          "internalType": "address",
          "name": "owner",
          "type": "address"
        },
        {
          "indexed": true,
          "internalType": "address",
          "name": "operator",
          "type": "address"
        },
        {
          "indexed": false,
          "internalType": "bool",
          "name": "approved",
          "type": "bool"
        }
      ],
      "name": "ApprovalForAll",
      "type": "event"
    },
    {
      "anonymous": false,
      "inputs": [
        {
          "indexed": true,
          "internalType": "uint256",
          "name": "tokenId",
          "type": "uint256"
        },
        {
          "indexed": false,
          "internalType": "uint256",
          "name": "price",
          "type": "uint256"
        }
      ],
      "name": "NFTListed",
      "type": "event"
    },
    {
      "anonymous": false,
      "inputs": [
        {
          "indexed": true,
          "internalType": "uint256",
          "name": "tokenId",
          "type": "uint256"
        }
      ],
      "name": "NFTMinted",
      "type": "event"
    },
    {
      "anonymous": false,
      "inputs": [
        {
          "indexed": true,
          "internalType": "uint256",
          "name": "tokenId",
          "type": "uint256"
        },
        {
          "indexed": true,
          "internalType": "address",
          "name": "buyer",
          "type": "address"
        },
        {
          "indexed": false,
          "internalType": "uint256",
          "name": "price",
          "type": "uint256"
        }
      ],
      "name": "NFTSold",
      "type": "event"
    },
    {
      "anonymous": false,
      "inputs": [
        {
          "indexed": true,
          "internalType": "uint256",
          "name": "tokenId",
          "type": "uint256"
        }
      ],
      "name": "NFTTransfer",
      "type": "event"
    },
    {
      "anonymous": false,
      "inputs": [
        {
          "indexed": true,
          "internalType": "address",
          "name": "previousOwner",
          "type": "address"
        },
        {
          "indexed": true,
          "internalType": "address",
          "name": "newOwner",
          "type": "address"
        }
      ],
      "name": "OwnershipTransferred",
      "type": "event"
    },
    {
      "anonymous": false,
      "inputs": [
        {
          "indexed": false,
          "internalType": "address",
          "name": "account",
          "type": "address"
        }
      ],
      "name": "Paused",
      "type": "event"
    },
    {
      "anonymous": false,
      "inputs": [
        {
          "indexed": true,
          "internalType": "address",
          "name": "from",
          "type": "address"
        },
        {
          "indexed": true,
          "internalType": "address",
          "name": "to",
          "type": "address"
        },
        {
          "indexed": true,
          "internalType": "uint256",
          "name": "tokenId",
          "type": "uint256"
        }
      ],
      "name": "Transfer",
      "type": "event"
    },
    {
      "anonymous": false,
      "inputs": [
        {
          "indexed": false,
          "internalType": "address",
          "name": "account",
          "type": "address"
        }
      ],
      "name": "Unpaused",
      "type": "event"
    },
    {
      "inputs": [
        {
          "internalType": "address",
          "name": "to",
          "type": "address"
        },
        {
          "internalType": "uint256",
          "name": "tokenId",
          "type": "uint256"
        }
      ],
      "name": "approve",
      "outputs": [],
      "stateMutability": "nonpayable",
      "type": "function"
    },
    {
      "inputs": [
        {
          "internalType": "address",
          "name": "owner",
          "type": "address"
        }
      ],
      "name": "balanceOf",
      "outputs": [
        {
          "internalType": "uint256",
          "name": "",
          "type": "uint256"
        }
      ],
      "stateMutability": "view",
      "type": "function"
    },
    {
      "inputs": [
        {
          "internalType": "uint256",
          "name": "_tokenId",
          "type": "uint256"
        }
      ],
      "name": "buyNFT",
      "outputs": [],
      "stateMutability": "payable",
      "type": "function"
    },
    {
      "inputs": [
        {
          "internalType": "uint256",
          "name": "tokenId",
          "type": "uint256"
        }
      ],
      "name": "getApproved",
      "outputs": [
        {
          "internalType": "address",
          "name": "",
          "type": "address"
        }
      ],
      "stateMutability": "view",
      "type": "function"
    },
    {
      "inputs": [
        {
          "internalType": "address",
          "name": "owner",
          "type": "address"
        },
        {
          "internalType": "address",
          "name": "operator",
          "type": "address"
        }
      ],
      "name": "isApprovedForAll",
      "outputs": [
        {
          "internalType": "bool",
          "name": "",
          "type": "bool"
        }
      ],
      "stateMutability": "view",
      "type": "function"
    },
    {
      "inputs": [
        {
          "internalType": "uint256",
          "name": "_tokenId",
          "type": "uint256"
        },
        {
          "internalType": "uint256",
          "name": "_price",
          "type": "uint256"
        }
      ],
      "name": "listNFT",
      "outputs": [],
      "stateMutability": "nonpayable",
      "type": "function"
    },
    {
      "inputs": [],
      "name": "marketplaceFee",
      "outputs": [
        {
          "internalType": "uint256",
          "name": "",
          "type": "uint256"
        }
      ],
      "stateMutability": "view",
      "type": "function"
    },
    {
      "inputs": [
        {
          "internalType": "address",
          "name": "_recipient",
          "type": "address"
        },
        {
          "internalType": "string",
          "name": "_metadataURI",
          "type": "string"
        },
        {
          "internalType": "uint256",
          "name": "_price",
          "type": "uint256"
        }
      ],
      "name": "mintNFT",
      "outputs": [
        {
          "internalType": "uint256",
          "name": "",
          "type": "uint256"
        }
      ],
      "stateMutability": "nonpayable",
      "type": "function"
    },
    {
      "inputs": [],
      "name": "name",
      "outputs": [
        {
          "internalType": "string",
          "name": "",
          "type": "string"
        }
      ],
      "stateMutability": "view",
      "type": "function"
    },
    {
      "inputs": [
        {
          "internalType": "uint256",
          "name": "",
          "type": "uint256"
        }
      ],
      "name": "nfts",
      "outputs": [
        {
          "internalType": "uint256",
          "name": "price",
          "type": "uint256"
        },
        {
          "internalType": "bool",
          "name": "isListed",
          "type": "bool"
        }
      ],
      "stateMutability": "view",
      "type": "function"
    },
    {
      "inputs": [],
      "name": "owner",
      "outputs": [
        {
          "internalType": "address",
          "name": "",
          "type": "address"
        }
      ],
      "stateMutability": "view",
      "type": "function"
    },
    {
      "inputs": [
        {
          "internalType": "uint256",
          "name": "tokenId",
          "type": "uint256"
        }
      ],
      "name": "ownerOf",
      "outputs": [
        {
          "internalType": "address",
          "name": "",
          "type": "address"
        }
      ],
      "stateMutability": "view",
      "type": "function"
    },
    {
      "inputs": [],
      "name": "pause",
      "outputs": [],
      "stateMutability": "nonpayable",
      "type": "function"
    },
    {
      "inputs": [],
      "name": "paused",
      "outputs": [
        {
          "internalType": "bool",
          "name": "",
          "type": "bool"
        }
      ],
      "stateMutability": "view",
      "type": "function"
    },
    {
      "inputs": [],
      "name": "renounceOwnership",
      "outputs": [],
      "stateMutability": "nonpayable",
      "type": "function"
    },
    {
      "inputs": [
        {
          "internalType": "address",
          "name": "from",
          "type": "address"
        },
        {
          "internalType": "address",
          "name": "to",
          "type": "address"
        },
        {
          "internalType": "uint256",
          "name": "tokenId",
          "type": "uint256"
        }
      ],
      "name": "safeTransferFrom",
      "outputs": [],
      "stateMutability": "nonpayable",
      "type": "function"
    },
    {
      "inputs": [
        {
          "internalType": "address",
          "name": "from",
          "type": "address"
        },
        {
          "internalType": "address",
          "name": "to",
          "type": "address"
        },
        {
          "internalType": "uint256",
          "name": "tokenId",
          "type": "uint256"
        },
        {
          "internalType": "bytes",
          "name": "data",
          "type": "bytes"
        }
      ],
      "name": "safeTransferFrom",
      "outputs": [],
      "stateMutability": "nonpayable",
      "type": "function"
    },
    {
      "inputs": [
        {
          "internalType": "address",
          "name": "operator",
          "type": "address"
        },
        {
          "internalType": "bool",
          "name": "approved",
          "type": "bool"
        }
      ],
      "name": "setApprovalForAll",
      "outputs": [],
      "stateMutability": "nonpayable",
      "type": "function"
    },
    {
      "inputs": [
        {
          "internalType": "bytes4",
          "name": "interfaceId",
          "type": "bytes4"
        }
      ],
      "name": "supportsInterface",
      "outputs": [
        {
          "internalType": "bool",
          "name": "",
          "type": "bool"
        }
      ],
      "stateMutability": "view",
      "type": "function"
    },
    {
      "inputs": [],
      "name": "symbol",
      "outputs": [
        {
          "internalType": "string",
          "name": "",
          "type": "string"
        }
      ],
      "stateMutability": "view",
      "type": "function"
    },
    {
      "inputs": [
        {
          "internalType": "uint256",
          "name": "_tokenId",
          "type": "uint256"
        }
      ],
      "name": "tokenURI",
      "outputs": [
        {
          "internalType": "string",
          "name": "",
          "type": "string"
        }
      ],
      "stateMutability": "view",
      "type": "function"
    },
    {
      "inputs": [
        {
          "internalType": "address",
          "name": "from",
          "type": "address"
        },
        {
          "internalType": "address",
          "name": "to",
          "type": "address"
        },
        {
          "internalType": "uint256",
          "name": "tokenId",
          "type": "uint256"
        }
      ],
      "name": "transferFrom",
      "outputs": [],
      "stateMutability": "nonpayable",
      "type": "function"
    },
    {
      "inputs": [
        {
          "internalType": "uint256",
          "name": "_tokenId",
          "type": "uint256"
        },
        {
          "internalType": "address",
          "name": "_to",
          "type": "address"
        }
      ],
      "name": "transferNFT",
      "outputs": [],
      "stateMutability": "nonpayable",
      "type": "function"
    },
    {
      "inputs": [
        {
          "internalType": "address",
          "name": "newOwner",
          "type": "address"
        }
      ],
      "name": "transferOwnership",
      "outputs": [],
      "stateMutability": "nonpayable",
      "type": "function"
    },
    {
      "inputs": [],
      "name": "unpause",
      "outputs": [],
      "stateMutability": "nonpayable",
      "type": "function"
    },
    {
      "stateMutability": "payable",
      "type": "receive"
    }
  ],
  "bytecode": "0x608060405264e8d4a51000600a553480156200001a57600080fd5b50336040518060400160405280600781526020017f416d642058766d000000000000000000000000000000000000000000000000008152506040518060400160405280600481526020017f4158564d0000000000000000000000000000000000000000000000000000000081525081600090816200009991906200049e565b508060019081620000ab91906200049e565b505050600073ffffffffffffffffffffffffffffffffffffffff168173ffffffffffffffffffffffffffffffffffffffff1603620001235760006040517f1e4fbdf70000000000000000000000000000000000000000000000000000000081526004016200011a9190620005ca565b60405180910390fd5b62000134816200015e60201b60201c565b5060016007819055506000600860006101000a81548160ff021916908315150217905550620005e7565b6000600660009054906101000a900473ffffffffffffffffffffffffffffffffffffffff16905081600660006101000a81548173ffffffffffffffffffffffffffffffffffffffff021916908373ffffffffffffffffffffffffffffffffffffffff1602179055508173ffffffffffffffffffffffffffffffffffffffff168173ffffffffffffffffffffffffffffffffffffffff167f8be0079c531659141344cd1fd0a4f28419497f9722a3daafe3b4186f6b6457e060405160405180910390a35050565b600081519050919050565b7f4e487b7100000000000000000000000000000000000000000000000000000000600052604160045260246000fd5b7f4e487b7100000000000000000000000000000000000000000000000000000000600052602260045260246000fd5b60006002820490506001821680620002a657607f821691505b602082108103620002bc57620002bb6200025e565b5b50919050565b60008190508160005260206000209050919050565b60006020601f8301049050919050565b600082821b905092915050565b600060088302620003267fffffffffffffffffffffffffffffffffffffffffffffffffffffffffffffffff82620002e7565b620003328683620002e7565b95508019841693508086168417925050509392505050565b6000819050919050565b6000819050919050565b60006200037f6200037962000373846200034a565b62000354565b6200034a565b9050919050565b6000819050919050565b6200039b836200035e565b620003b3620003aa8262000386565b848454620002f4565b825550505050565b600090565b620003ca620003bb565b620003d781848462000390565b505050565b5b81811015620003ff57620003f3600082620003c0565b600181019050620003dd565b5050565b601f8211156200044e576200041881620002c2565b6200042384620002d7565b8101602085101562000433578190505b6200044b6200044285620002d7565b830182620003dc565b50505b505050565b600082821c905092915050565b6000620004736000198460080262000453565b1980831691505092915050565b60006200048e838362000460565b9150826002028217905092915050565b620004a98262000224565b67ffffffffffffffff811115620004c557620004c46200022f565b5b620004d182546200028d565b620004de82828562000403565b600060209050601f83116001811462000516576000841562000501578287015190505b6200050d858262000480565b8655506200057d565b601f1984166200052686620002c2565b60005b82811015620005505784890151825560018201915060208501945060208101905062000529565b868310156200057057848901516200056c601f89168262000460565b8355505b6001600288020188555050505b505050505050565b600073ffffffffffffffffffffffffffffffffffffffff82169050919050565b6000620005b28262000585565b9050919050565b620005c481620005a5565b82525050565b6000602082019050620005e16000830184620005b9565b92915050565b612fbb80620005f76000396000f3fe60806040526004361061016a5760003560e01c80636a166964116100d157806394383f141161008a578063b88d4fde11610064578063b88d4fde1461054c578063c87b56dd14610575578063e985e9c5146105b2578063f2fde38b146105ef576101aa565b806394383f14146104cf57806395d89b41146104f8578063a22cb46514610523576101aa565b80636a166964146103e557806370a0823114610410578063715018a61461044d5780638456cb59146104645780638da5cb5b1461047b5780639036c050146104a6576101aa565b8063265aa62111610123578063265aa621146102e35780633f4ba83a1461032157806342842e0e1461033857806351ed8288146103615780635c975abb1461037d5780636352211e146103a8576101aa565b806301ffc9a7146101af57806306fdde03146101ec578063081812fc1461021757806308598df014610254578063095ea7b31461029157806323b872dd146102ba576101aa565b366101aa576040517f08c379a00000000000000000000000000000000000000000000000000000000081526004016101a190612285565b60405180910390fd5b600080fd5b3480156101bb57600080fd5b506101d660048036038101906101d19190612311565b610618565b6040516101e39190612359565b60405180910390f35b3480156101f857600080fd5b506102016106fa565b60405161020e91906123f3565b60405180910390f35b34801561022357600080fd5b5061023e6004803603810190610239919061244b565b61078c565b60405161024b91906124b9565b60405180910390f35b34801561026057600080fd5b5061027b60048036038101906102769190612635565b6107a8565b60405161028891906126b3565b60405180910390f35b34801561029d57600080fd5b506102b860048036038101906102b391906126ce565b610850565b005b3480156102c657600080fd5b506102e160048036038101906102dc919061270e565b610866565b005b3480156102ef57600080fd5b5061030a6004803603810190610305919061244b565b610968565b604051610318929190612761565b60405180910390f35b34801561032d57600080fd5b50610336610999565b005b34801561034457600080fd5b5061035f600480360381019061035a919061270e565b6109ab565b005b61037b6004803603810190610376919061244b565b6109cb565b005b34801561038957600080fd5b50610392610ce6565b60405161039f9190612359565b60405180910390f35b3480156103b457600080fd5b506103cf60048036038101906103ca919061244b565b610cfd565b6040516103dc91906124b9565b60405180910390f35b3480156103f157600080fd5b506103fa610d0f565b60405161040791906126b3565b60405180910390f35b34801561041c57600080fd5b506104376004803603810190610432919061278a565b610d15565b60405161044491906126b3565b60405180910390f35b34801561045957600080fd5b50610462610dcf565b005b34801561047057600080fd5b50610479610de3565b005b34801561048757600080fd5b50610490610df5565b60405161049d91906124b9565b60405180910390f35b3480156104b257600080fd5b506104cd60048036038101906104c891906127b7565b610e1f565b005b3480156104db57600080fd5b506104f660048036038101906104f191906127f7565b610e4f565b005b34801561050457600080fd5b5061050d610f5e565b60405161051a91906123f3565b60405180910390f35b34801561052f57600080fd5b5061054a60048036038101906105459190612863565b610ff0565b005b34801561055857600080fd5b50610573600480360381019061056e9190612944565b611006565b005b34801561058157600080fd5b5061059c6004803603810190610597919061244b565b611023565b6040516105a991906123f3565b60405180910390f35b3480156105be57600080fd5b506105d960048036038101906105d491906129c7565b6110c8565b6040516105e69190612359565b60405180910390f35b3480156105fb57600080fd5b506106166004803603810190610611919061278a565b61115c565b005b60007f80ac58cd000000000000000000000000000000000000000000000000000000007bffffffffffffffffffffffffffffffffffffffffffffffffffffffff1916827bffffffffffffffffffffffffffffffffffffffffffffffffffffffff191614806106e357507f5b5e139f000000000000000000000000000000000000000000000000000000007bffffffffffffffffffffffffffffffffffffffffffffffffffffffff1916827bffffffffffffffffffffffffffffffffffffffffffffffffffffffff1916145b806106f357506106f2826111e2565b5b9050919050565b60606000805461070990612a36565b80601f016020809104026020016040519081016040528092919081815260200182805461073590612a36565b80156107825780601f1061075757610100808354040283529160200191610782565b820191906000526020600020905b81548152906001019060200180831161076557829003601f168201915b5050505050905090565b60006107978261124c565b506107a1826112d4565b9050919050565b60006107b2611311565b6107ba611398565b600960008154809291906107cd90612a96565b9190505550600060095490506107e385826113d9565b6107ed81856113f7565b604051806040016040528084815260200160001515815250600c60008381526020019081526020016000206000820151816000015560208201518160010160006101000a81548160ff021916908315150217905550905050809150509392505050565b610862828261085d61141c565b611424565b5050565b600073ffffffffffffffffffffffffffffffffffffffff168273ffffffffffffffffffffffffffffffffffffffff16036108d85760006040517f64a0ae920000000000000000000000000000000000000000000000000000000081526004016108cf91906124b9565b60405180910390fd5b60006108ec83836108e761141c565b611436565b90508373ffffffffffffffffffffffffffffffffffffffff168173ffffffffffffffffffffffffffffffffffffffff1614610962578382826040517f64283d7b00000000000000000000000000000000000000000000000000000000815260040161095993929190612ade565b60405180910390fd5b50505050565b600c6020528060005260406000206000915090508060000154908060010160009054906101000a900460ff16905082565b6109a1611311565b6109a9611650565b565b6109c683838360405180602001604052806000815250611006565b505050565b6109d36116b3565b6109db611398565b6000600c600083815260200190815260200160002090508060010160009054906101000a900460ff16610a3a576040517fd135e8bd00000000000000000000000000000000000000000000000000000000815260040160405180910390fd5b6000600a548260000154610a4e9190612b15565b905080341015610a8a576040517f356680b700000000000000000000000000000000000000000000000000000000815260040160405180910390fd5b6000610a9584610cfd565b90503373ffffffffffffffffffffffffffffffffffffffff168173ffffffffffffffffffffffffffffffffffffffff1603610afc576040517f1d547fe300000000000000000000000000000000000000000000000000000000815260040160405180910390fd5b610b17813386604051806020016040528060008152506116f9565b60008173ffffffffffffffffffffffffffffffffffffffff168460000154604051610b4190612b7a565b60006040518083038185875af1925050503d8060008114610b7e576040519150601f19603f3d011682016040523d82523d6000602084013e610b83565b606091505b5050905080610bbe576040517f90b8ec1800000000000000000000000000000000000000000000000000000000815260040160405180910390fd5b6000610bc8610df5565b73ffffffffffffffffffffffffffffffffffffffff16600a54604051610bed90612b7a565b60006040518083038185875af1925050503d8060008114610c2a576040519150601f19603f3d011682016040523d82523d6000602084013e610c2f565b606091505b5050905080610c6a576040517f90b8ec1800000000000000000000000000000000000000000000000000000000815260040160405180910390fd5b60008560010160006101000a81548160ff0219169083151502179055503373ffffffffffffffffffffffffffffffffffffffff16867f6329e40c0365262ebbff5ca819385c2b9713dcaa050ed07866d72c441395699a34604051610cce91906126b3565b60405180910390a35050505050610ce3611716565b50565b6000600860009054906101000a900460ff16905090565b6000610d088261124c565b9050919050565b600a5481565b60008073ffffffffffffffffffffffffffffffffffffffff168273ffffffffffffffffffffffffffffffffffffffff1603610d885760006040517f89c62b64000000000000000000000000000000000000000000000000000000008152600401610d7f91906124b9565b60405180910390fd5b600360008373ffffffffffffffffffffffffffffffffffffffff1673ffffffffffffffffffffffffffffffffffffffff168152602001908152602001600020549050919050565b610dd7611311565b610de16000611720565b565b610deb611311565b610df36117e6565b565b6000600660009054906101000a900473ffffffffffffffffffffffffffffffffffffffff16905090565b610e27611398565b610e3082611849565b610e4b338284604051806020016040528060008152506116f9565b5050565b610e5882611849565b60008103610e92576040517fa7c1af5700000000000000000000000000000000000000000000000000000000815260040160405180910390fd5b6000600c600084815260200190815260200160002090508060010160009054906101000a900460ff1615610efb576040517f08c379a0000000000000000000000000000000000000000000000000000000008152600401610ef290612bdb565b60405180910390fd5b81816000018190555060018160010160006101000a81548160ff021916908315150217905550827fa6cd73580a273eec6c1026108f6b63479fbaef5356dde4ff43e4b38dd187485f83604051610f5191906126b3565b60405180910390a2505050565b606060018054610f6d90612a36565b80601f0160208091040260200160405190810160405280929190818152602001828054610f9990612a36565b8015610fe65780601f10610fbb57610100808354040283529160200191610fe6565b820191906000526020600020905b815481529060010190602001808311610fc957829003601f168201915b5050505050905090565b611002610ffb61141c565b83836118b9565b5050565b611011848484610866565b61101d84848484611a28565b50505050565b6060600b6000838152602001908152602001600020805461104390612a36565b80601f016020809104026020016040519081016040528092919081815260200182805461106f90612a36565b80156110bc5780601f10611091576101008083540402835291602001916110bc565b820191906000526020600020905b81548152906001019060200180831161109f57829003601f168201915b50505050509050919050565b6000600560008473ffffffffffffffffffffffffffffffffffffffff1673ffffffffffffffffffffffffffffffffffffffff16815260200190815260200160002060008373ffffffffffffffffffffffffffffffffffffffff1673ffffffffffffffffffffffffffffffffffffffff16815260200190815260200160002060009054906101000a900460ff16905092915050565b611164611311565b600073ffffffffffffffffffffffffffffffffffffffff168173ffffffffffffffffffffffffffffffffffffffff16036111d65760006040517f1e4fbdf70000000000000000000000000000000000000000000000000000000081526004016111cd91906124b9565b60405180910390fd5b6111df81611720565b50565b60007f01ffc9a7000000000000000000000000000000000000000000000000000000007bffffffffffffffffffffffffffffffffffffffffffffffffffffffff1916827bffffffffffffffffffffffffffffffffffffffffffffffffffffffff1916149050919050565b60008061125883611bdf565b9050600073ffffffffffffffffffffffffffffffffffffffff168173ffffffffffffffffffffffffffffffffffffffff16036112cb57826040517f7e2732890000000000000000000000000000000000000000000000000000000081526004016112c291906126b3565b60405180910390fd5b80915050919050565b60006004600083815260200190815260200160002060009054906101000a900473ffffffffffffffffffffffffffffffffffffffff169050919050565b61131961141c565b73ffffffffffffffffffffffffffffffffffffffff16611337610df5565b73ffffffffffffffffffffffffffffffffffffffff16146113965761135a61141c565b6040517f118cdaa700000000000000000000000000000000000000000000000000000000815260040161138d91906124b9565b60405180910390fd5b565b6113a0610ce6565b156113d7576040517fd93c066500000000000000000000000000000000000000000000000000000000815260040160405180910390fd5b565b6113f3828260405180602001604052806000815250611c1c565b5050565b80600b600084815260200190815260200160002090816114179190612da7565b505050565b600033905090565b6114318383836001611c38565b505050565b60008061144284611bdf565b9050600073ffffffffffffffffffffffffffffffffffffffff168373ffffffffffffffffffffffffffffffffffffffff161461148457611483818486611dfd565b5b600073ffffffffffffffffffffffffffffffffffffffff168173ffffffffffffffffffffffffffffffffffffffff1614611515576114c6600085600080611c38565b6001600360008373ffffffffffffffffffffffffffffffffffffffff1673ffffffffffffffffffffffffffffffffffffffff168152602001908152602001600020600082825403925050819055505b600073ffffffffffffffffffffffffffffffffffffffff168573ffffffffffffffffffffffffffffffffffffffff1614611598576001600360008773ffffffffffffffffffffffffffffffffffffffff1673ffffffffffffffffffffffffffffffffffffffff168152602001908152602001600020600082825401925050819055505b846002600086815260200190815260200160002060006101000a81548173ffffffffffffffffffffffffffffffffffffffff021916908373ffffffffffffffffffffffffffffffffffffffff160217905550838573ffffffffffffffffffffffffffffffffffffffff168273ffffffffffffffffffffffffffffffffffffffff167fddf252ad1be2c89b69c2b068fc378daa952ba7f163c4a11628f55a4df523b3ef60405160405180910390a4809150509392505050565b611658611ec1565b6000600860006101000a81548160ff0219169083151502179055507f5db9ee0a495bf2e6ff9c91a7834c1ba4fdd244a5e8aa4e537bd38aeae4b073aa61169c61141c565b6040516116a991906124b9565b60405180910390a1565b6002600754036116ef576040517f3ee5aeb500000000000000000000000000000000000000000000000000000000815260040160405180910390fd5b6002600781905550565b611704848484611f01565b61171084848484611a28565b50505050565b6001600781905550565b6000600660009054906101000a900473ffffffffffffffffffffffffffffffffffffffff16905081600660006101000a81548173ffffffffffffffffffffffffffffffffffffffff021916908373ffffffffffffffffffffffffffffffffffffffff1602179055508173ffffffffffffffffffffffffffffffffffffffff168173ffffffffffffffffffffffffffffffffffffffff167f8be0079c531659141344cd1fd0a4f28419497f9722a3daafe3b4186f6b6457e060405160405180910390a35050565b6117ee611398565b6001600860006101000a81548160ff0219169083151502179055507f62e78cea01bee320cd4e420270b5ea74000d11b0c9f74754ebdbfc544b05a25861183261141c565b60405161183f91906124b9565b60405180910390a1565b3373ffffffffffffffffffffffffffffffffffffffff1661186982610cfd565b73ffffffffffffffffffffffffffffffffffffffff16146118b6576040517f30cd747100000000000000000000000000000000000000000000000000000000815260040160405180910390fd5b50565b600073ffffffffffffffffffffffffffffffffffffffff168273ffffffffffffffffffffffffffffffffffffffff160361192a57816040517f5b08ba1800000000000000000000000000000000000000000000000000000000815260040161192191906124b9565b60405180910390fd5b80600560008573ffffffffffffffffffffffffffffffffffffffff1673ffffffffffffffffffffffffffffffffffffffff16815260200190815260200160002060008473ffffffffffffffffffffffffffffffffffffffff1673ffffffffffffffffffffffffffffffffffffffff16815260200190815260200160002060006101000a81548160ff0219169083151502179055508173ffffffffffffffffffffffffffffffffffffffff168373ffffffffffffffffffffffffffffffffffffffff167f17307eab39ab6107e8899845ad3d59bd9653f200f220920489ca2b5937696c3183604051611a1b9190612359565b60405180910390a3505050565b60008373ffffffffffffffffffffffffffffffffffffffff163b1115611bd9578273ffffffffffffffffffffffffffffffffffffffff1663150b7a02611a6c61141c565b8685856040518563ffffffff1660e01b8152600401611a8e9493929190612ece565b6020604051808303816000875af1925050508015611aca57506040513d601f19601f82011682018060405250810190611ac79190612f2f565b60015b611b4e573d8060008114611afa576040519150601f19603f3d011682016040523d82523d6000602084013e611aff565b606091505b506000815103611b4657836040517f64a0ae92000000000000000000000000000000000000000000000000000000008152600401611b3d91906124b9565b60405180910390fd5b805181602001fd5b63150b7a0260e01b7bffffffffffffffffffffffffffffffffffffffffffffffffffffffff1916817bffffffffffffffffffffffffffffffffffffffffffffffffffffffff191614611bd757836040517f64a0ae92000000000000000000000000000000000000000000000000000000008152600401611bce91906124b9565b60405180910390fd5b505b50505050565b60006002600083815260200190815260200160002060009054906101000a900473ffffffffffffffffffffffffffffffffffffffff169050919050565b611c26838361206e565b611c336000848484611a28565b505050565b8080611c715750600073ffffffffffffffffffffffffffffffffffffffff168273ffffffffffffffffffffffffffffffffffffffff1614155b15611da5576000611c818461124c565b9050600073ffffffffffffffffffffffffffffffffffffffff168373ffffffffffffffffffffffffffffffffffffffff1614158015611cec57508273ffffffffffffffffffffffffffffffffffffffff168173ffffffffffffffffffffffffffffffffffffffff1614155b8015611cff5750611cfd81846110c8565b155b15611d4157826040517fa9fbf51f000000000000000000000000000000000000000000000000000000008152600401611d3891906124b9565b60405180910390fd5b8115611da357838573ffffffffffffffffffffffffffffffffffffffff168273ffffffffffffffffffffffffffffffffffffffff167f8c5be1e5ebec7d5bd14f71427d1e84f3dd0314c0f7b2291e5b200ac8c7c3b92560405160405180910390a45b505b836004600085815260200190815260200160002060006101000a81548173ffffffffffffffffffffffffffffffffffffffff021916908373ffffffffffffffffffffffffffffffffffffffff16021790555050505050565b611e08838383612167565b611ebc57600073ffffffffffffffffffffffffffffffffffffffff168373ffffffffffffffffffffffffffffffffffffffff1603611e7d57806040517f7e273289000000000000000000000000000000000000000000000000000000008152600401611e7491906126b3565b60405180910390fd5b81816040517f177e802f000000000000000000000000000000000000000000000000000000008152600401611eb3929190612f5c565b60405180910390fd5b505050565b611ec9610ce6565b611eff576040517f8dfc202b00000000000000000000000000000000000000000000000000000000815260040160405180910390fd5b565b600073ffffffffffffffffffffffffffffffffffffffff168273ffffffffffffffffffffffffffffffffffffffff1603611f735760006040517f64a0ae92000000000000000000000000000000000000000000000000000000008152600401611f6a91906124b9565b60405180910390fd5b6000611f8183836000611436565b9050600073ffffffffffffffffffffffffffffffffffffffff168173ffffffffffffffffffffffffffffffffffffffff1603611ff457816040517f7e273289000000000000000000000000000000000000000000000000000000008152600401611feb91906126b3565b60405180910390fd5b8373ffffffffffffffffffffffffffffffffffffffff168173ffffffffffffffffffffffffffffffffffffffff1614612068578382826040517f64283d7b00000000000000000000000000000000000000000000000000000000815260040161205f93929190612ade565b60405180910390fd5b50505050565b600073ffffffffffffffffffffffffffffffffffffffff168273ffffffffffffffffffffffffffffffffffffffff16036120e05760006040517f64a0ae920000000000000000000000000000000000000000000000000000000081526004016120d791906124b9565b60405180910390fd5b60006120ee83836000611436565b9050600073ffffffffffffffffffffffffffffffffffffffff168173ffffffffffffffffffffffffffffffffffffffff16146121625760006040517f73c6ac6e00000000000000000000000000000000000000000000000000000000815260040161215991906124b9565b60405180910390fd5b505050565b60008073ffffffffffffffffffffffffffffffffffffffff168373ffffffffffffffffffffffffffffffffffffffff161415801561221f57508273ffffffffffffffffffffffffffffffffffffffff168473ffffffffffffffffffffffffffffffffffffffff1614806121e057506121df84846110c8565b5b8061221e57508273ffffffffffffffffffffffffffffffffffffffff16612206836112d4565b73ffffffffffffffffffffffffffffffffffffffff16145b5b90509392505050565b600082825260208201905092915050565b7f446972656374207472616e7366657273206e6f7420616c6c6f77656400000000600082015250565b600061226f601c83612228565b915061227a82612239565b602082019050919050565b6000602082019050818103600083015261229e81612262565b9050919050565b6000604051905090565b600080fd5b600080fd5b60007fffffffff0000000000000000000000000000000000000000000000000000000082169050919050565b6122ee816122b9565b81146122f957600080fd5b50565b60008135905061230b816122e5565b92915050565b600060208284031215612327576123266122af565b5b6000612335848285016122fc565b91505092915050565b60008115159050919050565b6123538161233e565b82525050565b600060208201905061236e600083018461234a565b92915050565b600081519050919050565b60005b8381101561239d578082015181840152602081019050612382565b60008484015250505050565b6000601f19601f8301169050919050565b60006123c582612374565b6123cf8185612228565b93506123df81856020860161237f565b6123e8816123a9565b840191505092915050565b6000602082019050818103600083015261240d81846123ba565b905092915050565b6000819050919050565b61242881612415565b811461243357600080fd5b50565b6000813590506124458161241f565b92915050565b600060208284031215612461576124606122af565b5b600061246f84828501612436565b91505092915050565b600073ffffffffffffffffffffffffffffffffffffffff82169050919050565b60006124a382612478565b9050919050565b6124b381612498565b82525050565b60006020820190506124ce60008301846124aa565b92915050565b6124dd81612498565b81146124e857600080fd5b50565b6000813590506124fa816124d4565b92915050565b600080fd5b600080fd5b7f4e487b7100000000000000000000000000000000000000000000000000000000600052604160045260246000fd5b612542826123a9565b810181811067ffffffffffffffff821117156125615761256061250a565b5b80604052505050565b60006125746122a5565b90506125808282612539565b919050565b600067ffffffffffffffff8211156125a05761259f61250a565b5b6125a9826123a9565b9050602081019050919050565b82818337600083830152505050565b60006125d86125d384612585565b61256a565b9050828152602081018484840111156125f4576125f3612505565b5b6125ff8482856125b6565b509392505050565b600082601f83011261261c5761261b612500565b5b813561262c8482602086016125c5565b91505092915050565b60008060006060848603121561264e5761264d6122af565b5b600061265c868287016124eb565b935050602084013567ffffffffffffffff81111561267d5761267c6122b4565b5b61268986828701612607565b925050604061269a86828701612436565b9150509250925092565b6126ad81612415565b82525050565b60006020820190506126c860008301846126a4565b92915050565b600080604083850312156126e5576126e46122af565b5b60006126f3858286016124eb565b925050602061270485828601612436565b9150509250929050565b600080600060608486031215612727576127266122af565b5b6000612735868287016124eb565b9350506020612746868287016124eb565b925050604061275786828701612436565b9150509250925092565b600060408201905061277660008301856126a4565b612783602083018461234a565b9392505050565b6000602082840312156127a05761279f6122af565b5b60006127ae848285016124eb565b91505092915050565b600080604083850312156127ce576127cd6122af565b5b60006127dc85828601612436565b92505060206127ed858286016124eb565b9150509250929050565b6000806040838503121561280e5761280d6122af565b5b600061281c85828601612436565b925050602061282d85828601612436565b9150509250929050565b6128408161233e565b811461284b57600080fd5b50565b60008135905061285d81612837565b92915050565b6000806040838503121561287a576128796122af565b5b6000612888858286016124eb565b92505060206128998582860161284e565b9150509250929050565b600067ffffffffffffffff8211156128be576128bd61250a565b5b6128c7826123a9565b9050602081019050919050565b60006128e76128e2846128a3565b61256a565b90508281526020810184848401111561290357612902612505565b5b61290e8482856125b6565b509392505050565b600082601f83011261292b5761292a612500565b5b813561293b8482602086016128d4565b91505092915050565b6000806000806080858703121561295e5761295d6122af565b5b600061296c878288016124eb565b945050602061297d878288016124eb565b935050604061298e87828801612436565b925050606085013567ffffffffffffffff8111156129af576129ae6122b4565b5b6129bb87828801612916565b91505092959194509250565b600080604083850312156129de576129dd6122af565b5b60006129ec858286016124eb565b92505060206129fd858286016124eb565b9150509250929050565b7f4e487b7100000000000000000000000000000000000000000000000000000000600052602260045260246000fd5b60006002820490506001821680612a4e57607f821691505b602082108103612a6157612a60612a07565b5b50919050565b7f4e487b7100000000000000000000000000000000000000000000000000000000600052601160045260246000fd5b6000612aa182612415565b91507fffffffffffffffffffffffffffffffffffffffffffffffffffffffffffffffff8203612ad357612ad2612a67565b5b600182019050919050565b6000606082019050612af360008301866124aa565b612b0060208301856126a4565b612b0d60408301846124aa565b949350505050565b6000612b2082612415565b9150612b2b83612415565b9250828201905080821115612b4357612b42612a67565b5b92915050565b600081905092915050565b50565b6000612b64600083612b49565b9150612b6f82612b54565b600082019050919050565b6000612b8582612b57565b9150819050919050565b7f4e465420697320616c7265616479206c69737465642e00000000000000000000600082015250565b6000612bc5601683612228565b9150612bd082612b8f565b602082019050919050565b60006020820190508181036000830152612bf481612bb8565b9050919050565b60008190508160005260206000209050919050565b60006020601f8301049050919050565b600082821b905092915050565b600060088302612c5d7fffffffffffffffffffffffffffffffffffffffffffffffffffffffffffffffff82612c20565b612c678683612c20565b95508019841693508086168417925050509392505050565b6000819050919050565b6000612ca4612c9f612c9a84612415565b612c7f565b612415565b9050919050565b6000819050919050565b612cbe83612c89565b612cd2612cca82612cab565b848454612c2d565b825550505050565b600090565b612ce7612cda565b612cf2818484612cb5565b505050565b5b81811015612d1657612d0b600082612cdf565b600181019050612cf8565b5050565b601f821115612d5b57612d2c81612bfb565b612d3584612c10565b81016020851015612d44578190505b612d58612d5085612c10565b830182612cf7565b50505b505050565b600082821c905092915050565b6000612d7e60001984600802612d60565b1980831691505092915050565b6000612d978383612d6d565b9150826002028217905092915050565b612db082612374565b67ffffffffffffffff811115612dc957612dc861250a565b5b612dd38254612a36565b612dde828285612d1a565b600060209050601f831160018114612e115760008415612dff578287015190505b612e098582612d8b565b865550612e71565b601f198416612e1f86612bfb565b60005b82811015612e4757848901518255600182019150602085019450602081019050612e22565b86831015612e645784890151612e60601f891682612d6d565b8355505b6001600288020188555050505b505050505050565b600081519050919050565b600082825260208201905092915050565b6000612ea082612e79565b612eaa8185612e84565b9350612eba81856020860161237f565b612ec3816123a9565b840191505092915050565b6000608082019050612ee360008301876124aa565b612ef060208301866124aa565b612efd60408301856126a4565b8181036060830152612f0f8184612e95565b905095945050505050565b600081519050612f29816122e5565b92915050565b600060208284031215612f4557612f446122af565b5b6000612f5384828501612f1a565b91505092915050565b6000604082019050612f7160008301856124aa565b612f7e60208301846126a4565b939250505056fea2646970667358221220c9907222452db5c170af8b0d930ba19985bb55fb96bc7fa23cb4366bba60e2bd64736f6c63430008180033",
  "linkReferences": {},
  "deployedLinkReferences": {}
}